:100000000C94E64E0C94174F0C94174F0C94174F0A
:100010000C94174F0D94C8400C94174F0C94D17149
:100020000D9456400C94174F0C94174F0C94174F87
:100030000C948EDC0C94174F0C94156C0C94D2EA33
:100040000C94174F0C945A720C94174F0C94174F32
:100050000C94174F0C94174F0C94174F0D948A2D36
:100060000C94174F0C9413E40C94174F0C94174FE7
:100070000C94174F0C94174F0C94174F0C94174F68
:100080000C94174F0C94174F0C94174F0C94174F58
:100090000C94CFE30C94174F0C94174F0C94174FFC
:1000A0000C94174F0C94174F0C9414EA0C94174FA0
:1000B0000C94174F0C94F6E90C94174F0C94174FAF
:1000C0000C94174F0C94174F0C94174F0C947DE918
:1000D0000C94174F0C94174F0C94174F0C94174F08
:1000E0000C94174F084AD73B3BCE016E84BCBFFD32
:1000F000C12F3D6C74319ABD56833DDA3D00C77FF8
:1001000011BED9E4BB4C3E916BAAAABE0000008090
:100110003F05A84CCDB2D44EB93836A9020C50B91F
:10012000918688083CA6AAAA2ABE000000803F0744
:10013000634236B79BD8A71A39685618AEBAAB5582
:100140008C1D3CB7CC5763BD6DEDFD753EF6177247
:1001500031BF000000803F08000000BE9224491219
:100160003EABAAAA2ABECDCCCC4C3E00000080BE3D
:10017000ABAAAAAA3E00000000BF000000803F001A
:1001800000000000084178D3BB4387D1133D190E0E
:100190003CC3BD4282AD2B3E68EC8276BED98FE176
:1001A000A93E4C80EFFFBE01C4FF7F3F000000006E
:1001B00000000C94F6A90D94B3590D94D6C60C9476
:1001C0006BC10C9438C10D94B9570C94398C0C94B4
:1001D000AEAA0C9491D80C94DB8B0C943FBF0C947A
:1001E00013CF0C9404AB0C94CDA90C9430AE0C94AA
:1001F0000EAA0C9445910C941EAB0C94A9A50C94DA
:100200002AAB0D94FB2D0C94DA630C9456B10C942C
:10021000265B0C9459AD0C94467F0C9460B10D9400
:100220002A9A0C94FDBB0C9404AA0C9410A40C9470
:1002300077580C949AD90D9405270C94B2A50C9478
:1002400077550C9463C10C9440C00C94878B0C942C
:1002500070D80D941E2E0C943EAE0C9424BD0C94BC
:1002600048550C94C1A90C9465D90C946FD90C9481
:100270002ABE0D94CA570C945A5B0C94F2A90C94A4
:10028000C5D80C9425BB0C94C8B50D94CD2C0C94FA
:10029000ED5A0C9415B50D94BC2E0C94417F0D9421
:1002A000CC5A0C9433BE0C947A640C94C6D90C943A
:1002B000557F0D94C32D0C94B6C10C9416540C9418
:1002C0005B640C94FCBE0C9492910D9427290C94C1
:1002D00051C10C94A7B10C9465B10C94218C0C9471
:1002E00084520C94EEA90D94F55A0C944AAB0C94DC
:1002F00009AC0C94DBBD0D9485990C94DCAA0C948C
:100300003BD90C94E5AB0C943E5A0C946AB10C9416
:1003100013AA0D945D580C94FCA90C94AD7F0C9419
:10032000B1D80C94D08B0C9418650C94608B0C9401
:100330008D7F0D94EE990C9410510C94EC580C9404
:10034000A57F0C9479B10C940BBC0C949D7F0C94FC
:1003500055AB0C947DB10C94F18B0C9483D90C9417
:1003600041BC0C9486AA0C94BEAA0C9489C10C942E
:10037000058B0D94CE2D0D94B15A0C9427B00C948E
:10038000E0A90C94F5BB0C94DAA90C94F7AB0C948F
:1003900056560C94857F0C94BBA50C94657F0C94E9
:1003A0007D7F0C947CD90C945BB10D94FD990C94D9
:1003B0003DC10C946D7F0C946BE40D94C0600C9463
:1003C0007ABE0C9437AE0D94302E0C945BC10C9415
:1003D0000F7F0C9499900C94978B0C9497AA0C9483
:1003E0003FAB0C94328B0C9471510C9481CA0C94D9
:1003F0007FB40D94E15F0C9400AA0C945D7F0C9483
:1004000086AD0C946BD90C9475C10D94A0570C94C7
:1004100055D90C94CD550D94A32C0C9427AF0C9466
:10042000B1AC0C94975D0C94B7510C941CCF0D9407
:10043000A92D0D9455580C9495DA0C94D6A90C94CA
:10044000E5900C9491AA0C94757F0C94E5D70C94CC
:100450009E900C94F0B10C9430C10D9493580C9470
:10046000BECA0C9421500C942DD10C94C58B0C94C5
:10047000E68B0D941E9A0C943C7F0C9472B00C94F5
:100480008DBA0C9497510C94CAB40C944CAE0C9445
:10049000D3D80C94ADDA0C948D510D94FC570C9478
:1004A000C47E0C94A4D50C940C7F0C94A8510C948D
:1004B000957F0D94009A0C94F25A0D94F22D0C94A1
:1004C000CAC10C94B8BC0C9478910C9416580C9436
:1004D000EEBC0C9447C10D94FA990C94CFC50D94C1
:1004E00061300C9461BD0C94FCD80C9445AE0C9416
:1004F0006FB10D940F9A0C94BBA90C94167F0C94B9
:1005000079D00D94039A0C94C5A90C94A0890C94ED
:10051000C9A90C94D0A90C9421C80C9449630C94DB
:100520003B590D9491990C94C0C10C941AAE0D9442
:10053000B8C60C9491C60D942E600C94C8AA0C9465
:10054000A2C10D941B9A0C9465D00C947FC10D949C
:10055000DC2D0C949EBD0D94A9990C94E4A90C94E7
:10056000FBA90C94B7AB0C9490520D944C5A0C947C
:1005700074B10C946EB20C944B7F0C94E8A90C945B
:100580003CBE0C94EC540C94F0AA0C94ACC10C94AA
:10059000E7560C9498C15F5345435F4C414E47006A
:1005A000000000000000000000000000000000004B
:1005B000000000000000000000000000000000003B
:1005C000000000000000000000000000000000002B
:1005D000000000000000000000000000000000001B
:10359000000000000000FFFF526573756D696E67E3
:1035A000207072696E7400FFFF50494E44412048FC
:1035B000656174696E6700FFFF43616C69627261E7
:1035C00074696F6E20646F6E6500FFFF43616C6904
:1035D00062726174696E67205A00FFFF4265642061
:1035E000646F6E6500FFFF42656420486561746921
:1035F0006E6700FFFF48656174696E6720646F6ED7
:10360000652E00FFFF48656174696E6700FFFF4D1E
:10361000313137204669727374206C61796572208C
:1036200063616C2E00FFFF5049442063616C2E20C3
:1036300066696E697368656400FFFF5049442063E2
:10364000616C2E00FFFF5072696E7420706175739B
:10365000656400FFFF5072696E742046414E00FFA2
:10366000FF4E6F7A7A6C652046414E00FFFF4D4D4C
:1036700055206661696C7300FFFF4D4D55206C6FDE
:103680006164206661696C7300FFFF4D4D552070C9
:103690006F776572206661696C7300FFFF546F7409
:1036A000616C206661696C7572657300FFFF4C6127
:1036B0007374207072696E74206661696C757265CE
:1036C0007300FFFF506F776572206661696C7572D9
:1036D000657300FFFF46696C2E2072756E6F7574FE
:1036E0007300FFFF437261736800FFFF546F7461E2
:1036F0006C00FFFF4C617374207072696E7400FF80
:10370000FF416D6269656E7400FFFF44756D702046
:103710006D656D6F727900FFFF566F6C7461676540
:103720007300FFFF54656D70657261747572657327
:1037300000FFFF42656C742073746174757300FF41
:10374000FF53656E736F7220696E666F00FFFF45F1
:103750007874727564657220696E666F00FFFF5839
:10376000595A2063616C2E2064657461696C730022
:10377000FFFF756E6B6E6F776E00FFFF4D4D55321C
:1037800020636F6E6E656374656400FFFF4461744F
:10379000653A00FFFF746F20756E6C6F6164206680
:1037A000696C616D656E7400FFFF746F206C6F61F2
:1037B000642066696C616D656E7400FFFF50726510
:1037C000737320746865206B6E6F6200FFFF507228
:1037D0006568656174696E6720746F206375740035
:1037E000FFFF50726568656174696E6720746F20B1
:1037F000656A65637400FFFF50726568656174698E
:103800006E6720746F20756E6C6F616400FFFF50EF
:10381000726568656174696E6720746F206C6F6192
:103820006400FFFF436F6F6C646F776E00FFFF50A3
:1038300072656865617420746865206E6F7A7A6C51
:10384000652100FFFF4552524F523A00FFFF466983
:103850006C616D656E7420657874727564696E67ED
:103860002026207769746820636F72726563742004
:10387000636F6C6F723F00FFFF4175746F6C6F6117
:1038800064696E672066696C616D656E742069732A
:10389000206163746976652C206A75737420707278
:1038A00065737320746865206B6E6F6220616E644F
:1038B00020696E736572742066696C616D656E74E3
:1038C0002E2E2E00FFFF546F74616C2066696C61B0
:1038D0006D656E7400FFFF546F74616C20707269C7
:1038E0006E742074696D6500FFFF46696C616D65DB
:1038F0006E74207573656400FFFF5072696E7420EA
:1039000074696D6500FFFF592064697374616E63AB
:10391000652066726F6D206D696E00FFFF4C6566F5
:103920007400FFFF526967687400FFFF4D656173A3
:103930007572656420736B657700FFFF536C696770
:10394000687420736B657700FFFF53657665726559
:1039500020736B657700FFFF5B303B305D20706F3D
:10396000696E74206F666673657400FFFF41646A58
:10397000757374696E67205A3A00FFFF5265617271
:103980002073696465205B756D5D00FFFF46726F93
:103990006E7420736964655B756D5D00FFFF52692D
:1039A00067687420736964655B756D5D00FFFF4C2B
:1039B0006566742073696465205B756D5D00FFFF4B
:1039C0005365742074656D70657261747572653AC3
:1039D00000FFFF54656D70657261747572652063D8
:1039E000616C6962726174696F6E206661696C6591
:1039F0006400FFFF54656D706572617475726520B7
:103A000063616C6962726174696F6E2069732066AC
:103A1000696E697368656420616E642061637469AE
:103A200076652E2054656D702E2063616C6962721C
:103A30006174696F6E2063616E20626520646973D2
:103A400061626C656420696E206D656E75205365DA
:103A50007474696E67732D3E54656D702E206361BA
:103A60006C2E00FFFF46696C2E2073656E736F72BB
:103A700000FFFF457874727564657200FFFF4D6F3B
:103A80007665205A00FFFF4D6F7665205900FFFFD5
:103A90004D6F7665205800FFFF43726173682064A4
:103AA0006574656374696F6E2063616E0A62652078
:103AB0007475726E6564206F6E206F6E6C7920690C
:103AC0006E0A4E6F726D616C206D6F646500FFFF52
:103AD0005741524E494E473A0A4372617368206417
:103AE0006574656374696F6E0A64697361626C659D
:103AF0006420696E0A537465616C7468206D6F642C
:103B00006500FFFF4175746F6C6F6164696E6720BB
:103B100066696C616D656E7420617661696C616265
:103B20006C65206F6E6C79207768656E2066696CB5
:103B3000616D656E742073656E736F72206973209A
:103B40007475726E6564206F6E2E2E2E00FFFF4519
:103B500052524F523A2046696C616D656E74207303
:103B6000656E736F72206973206E6F742072657357
:103B7000706F6E64696E672C20706C656173652070
:103B8000636865636B20636F6E6E656374696F6EE7
:103B90002E00FFFF4D6F6465206368616E676520CE
:103BA000696E2070726F67726573732E2E2E00FF20
:103BB000FF436F70792073656C6563746564206C76
:103BC000616E67756167653F00FFFF53656C6563F4
:103BD00074206C616E677561676500FFFF436F6DF0
:103BE0006D756E697479206D61646500FFFF4361D6
:103BF0006C69627261746500FFFF536865657420CB
:103C0000252E37730A5A206F66667365743A20252D
:103C10002B312E3366206D6D0A2563436F6E7469F8
:103C20006E75650A256353746172742066726F6DD8
:103C3000207A65726F00FFFF506C65617365206CC0
:103C40006F61642066696C616D656E74206669726F
:103C500073742E00FFFF53656C6563742066696C96
:103C6000616D656E743A00FFFF46696C616D656E4B
:103C70007400FFFF3E43616E63656C00FFFF527589
:103C80006E6E696E672057697A6172642077696C1D
:103C90006C2064656C6574652063757272656E7402
:103CA0002063616C6962726174696F6E2072657302
:103CB000756C747320616E64207374617274206615
:103CC000726F6D2074686520626567696E6E696EDB
:103CD000672E20436F6E74696E75653F00FFFF505D
:103CE000726568656174696E67206E6F7A7A6C655B
:103CF0002E20506C6561736520776169742E00FF1A
:103D0000FF4C6F6164696E672066696C616D656EFA
:103D10007400FFFF506C6561736520696E73657296
:103D2000742066696C616D656E7420696E746F20B5
:103D30007468652065787472756465722C20746887
:103D4000656E20707265737320746865206B6E6F8A
:103D50006220746F206C6F61642069742E00FFFF15
:103D6000506C6561736520696E7365727420666955
:103D70006C616D656E7420696E746F207468652067
:103D800066697273742074756265206F662074684A
:103D900065204D4D552C207468656E2070726573DA
:103DA0007320746865206B6E6F6220746F206C6F77
:103DB00061642069742E00FFFF5468652070726989
:103DC0006E7465722077696C6C20737461727420F4
:103DD0007072696E74696E672061207A69672D7AE6
:103DE0006167206C696E652E20526F746174652066
:103DF000746865206B6E6F6220756E74696C2079D3
:103E00006F7520726561636820746865206F7074D7
:103E1000696D616C206865696768742E2043686508
:103E2000636B2074686520706963747572657320B4
:103E3000696E207468652068616E64626F6F6B20C4
:103E40002843616C6962726174696F6E2063686196
:103E500070746572292E00FFFF53656C65637420D2
:103E600074656D70657261747572652077686963D9
:103E700068206D61746368657320796F7572206D59
:103E80006174657269616C2E00FFFF43686F6F7328
:103E90006520612066696C616D656E7420666F7265
:103EA00020746865204669727374204C617965726C
:103EB0002043616C6962726174696F6E20616E6427
:103EC0002073656C65637420697420696E20746862
:103ED00065206F6E2D73637265656E206D656E75FE
:103EE0002E00FFFF4E6F7720492077696C6C2063AE
:103EF000616C6962726174652064697374616E6378
:103F000065206265747765656E20746970206F66E0
:103F100020746865206E6F7A7A6C6520616E64200B
:103F20006865617462656420737572666163652E8D
:103F300000FFFF596F752063616E20616C776179B6
:103F40007320726573756D65207468652057697A92
:103F50006172642066726F6D2043616C6962726188
:103F600074696F6E202D3E2057697A6172642E004D
:103F7000FFFF506C6561736520636865636B206F3C
:103F800075722068616E64626F6F6B20616E642071
:103F9000666978207468652070726F626C656D2E3A
:103FA000205468656E20726573756D652074686550
:103FB0002057697A617264206279207265626F6F3E
:103FC00074696E6720746865207072696E746572BA
:103FD0002E00FFFF416C6C20697320646F6E652EAC
:103FE000204861707079207072696E74696E672103
:103FF00000FFFF496620796F752068617665206152
:1040000064646974696F6E616C20737465656C209B
:104010007368656574732C2063616C696272617486
:1040200065207468656972207072657365747320A9
:10403000696E2053657474696E6773202D2048572C
:10404000205365747570202D20537465656C207342
:1040500068656574732E00FFFF506C6561736520A1
:10406000636C65616E206865617462656420616E71
:1040700064207468656E207072657373207468655F
:10408000206B6E6F622E00FFFF446F20796F7520EA
:1040900077616E7420746F20726570656174206C36
:1040A000617374207374657020746F20726561642D
:1040B0006A7573742064697374616E6365206265E8
:1040C000747765656E206E6F7A7A6C6520616E64B8
:1040D00020686561746265643F00FFFF53656C652D
:1040E0006374206E6F7A7A6C6520707265686561A2
:1040F000742074656D70657261747572652077687F
:10410000696368206D61746368657320796F757287
:10411000206D6174657269616C2E00FFFF49732028
:1041200066696C616D656E74206C6F616465643F77
:1041300000FFFF4E6F7720492077696C6C2070720A
:104140006568656174206E6F7A7A6C6520666F723F
:1041500020504C412E00FFFF492077696C6C207283
:10416000756E207A2063616C6962726174696F6E2A
:10417000206E6F772E00FFFF4E6F772072656D6F98
:104180007665207468652074657374207072696E3A
:10419000742066726F6D20737465656C207368653A
:1041A00065742E00FFFF506C656173652072656D4C
:1041B0006F7665207368697070696E672068656CDA
:1041C000706572732066697273742E00FFFF492058
:1041D00077696C6C2072756E2078797A2063616CD7
:1041E0006962726174696F6E206E6F772E204974F8
:1041F0002077696C6C2074616B6520617070726FE0
:10420000782E203132206D696E732E00FFFF4669D3
:104210007273742C20492077696C6C2072756E2043
:104220007468652073656C667465737420746F20A0
:10423000636865636B206D6F737420636F6D6D6F62
:104240006E20617373656D626C792070726F626C41
:10425000656D732E00FFFF48692C204920616D2099
:10426000796F7572204F726967696E616C20507248
:10427000757361206933207072696E7465722E20C7
:10428000576F756C6420796F75206C696B65206D54
:104290006520746F20677569646520796F75207477
:1042A00068726F75676820746865207365747570CF
:1042B0002070726F636573733F00FFFF48692C20A5
:1042C0004920616D20796F7572204F726967696E40
:1042D000616C205072757361206933207072696E51
:1042E0007465722E20492077696C6C20677569644B
:1042F0006520796F75207468726F7567682061201A
:1043000073686F72742073657475702070726F6358
:104310006573732C20696E20776869636820746800
:1043200065205A2D617869732077696C6C2062650D
:104330002063616C696272617465642E20546865E3
:104340006E2C20796F752077696C6C206265207205
:104350006561647920746F207072696E742E00FF3D
:10436000FF452D636F72726563743A00FFFF5A2D2B
:10437000636F72726563743A00FFFF592D636F7249
:10438000726563743A00FFFF582D636F7272656344
:10439000743A00FFFF43757474657200FFFF4D6F40
:1043A00064656C00FFFF53747269637400FFFF570C
:1043B00061726E00FFFF436865636B7300FFFF4E21
:1043C0006F7A7A6C6520642E00FFFF4E6F6E650079
:1043D000FFFF416C70686162657400FFFF536F728C
:1043E0007400FFFF54696D6500FFFF534420636153
:1043F000726400FFFF53656C656374206C616E67C7
:104400007561676500FFFF52506920706F7274001C
:10441000FFFF54656D702E2063616C2E00FFFF4C12
:10442000696E2E20636F7272656374696F6E00FF30
:10443000FF485720536574757000FFFF462E2061BA
:1044400075746F6C6F616400FFFF44697361626C27
:104450006520737465707065727300FFFF4D6F7631
:1044600065206178697300FFFF54656D7065726146
:104470007475726500FFFF54656D702E2063616C6A
:104480006962726174696F6E00FFFF5265736574D3
:104490002058595A2063616C6962722E00FFFF50E8
:1044A00049442063616C6962726174696F6E00FFD8
:1044B000FF426564206C6576656C20636F7272657F
:1044C000637400FFFF4D65736820426564204C658E
:1044D00076656C696E6700FFFF43616C69627261AB
:1044E0007465205A00FFFF43616C696272617465F4
:1044F0002058595A00FFFF53656C66746573740049
:10450000FFFF42656C74207465737400FFFF576988
:104510007A61726400FFFF4C6F616420616C6C0013
:10452000FFFF506C656173652070756C6C206F7552
:10453000742066696C616D656E7420696D6D65646B
:10454000696174656C7900FFFF556E6C6F61646919
:104550006E672066696C616D656E7400FFFF526561
:1045600073657400FFFF52656E616D6500FFFF4665
:1045700069727374206C617965722063616C2E00BE
:10458000FFFF53656C65637400FFFF537465656CD2
:104590002073686565747300FFFF537570706F72E8
:1045A0007400FFFF4661696C207374617473204D61
:1045B0004D5500FFFF4661696C2073746174730090
:1045C000FFFF5374617469737469637300FFFF4381
:1045D000616C6962726174696F6E00FFFF4175748E
:1045E0006F4C6F61642066696C616D656E7400FF6D
:1045F000FF4375742066696C616D656E7400FFFF22
:10460000456A6563742066696C616D656E7400FF50
:10461000FF556E6C6F61642066696C616D656E74C8
:1046200000FFFF4C6F616420746F206E6F7A7A6CAC
:104630006500FFFF4C6F61642066696C616D656E9B
:104640007400FFFF4E6F205344206361726400FFCB
:10465000FF5072696E742066726F6D20534400FFC4
:10466000FF526573756D65207072696E7400FFFF8F
:104670005061757365207072696E7400FFFF547528
:104680006E6500FFFF5072656865617400FFFF4C46
:104690006976652061646A757374205A00FFFF496A
:1046A0006E666F2073637265656E00FFFF46696E0C
:1046B000697368696E67206D6F76656D656E74737A
:1046C00000FFFF4272696768746E65737300FFFFD5
:1046D00041737369737400FFFF53696C656E7400F6
:1046E000FFFF4F6E636500FFFF536F756E6400FF41
:1046F000FF4C6F756400FFFF4D4D55204D6F646595
:1047000000FFFF4372617368206465742E00FFFF31
:10471000537465616C746800FFFF4E6F726D616C5D
:1047200000FFFF46616E7320636865636B00FFFFE7
:10473000506175736500FFFF465320416374696FD4
:104740006E00FFFF436F6E742E00FFFF46696C2EF4
:104750002073656E736F7200FFFF4368616E67655B
:104760002066696C616D656E7400FFFF466C6F7743
:1047700000FFFF537065656400FFFF4D61676E6564
:10478000747320636F6D702E00FFFF4E2F4100FF8A
:10479000FF5A2D70726F6265206E722E00FFFF4D02
:1047A00065736800FFFF54696D656F757400FFFFE6
:1047B0004D6F646500FFFF4175746F00FFFF446932
:1047C0006D00FFFF42726967687400FFFF4C6576F9
:1047D000656C2044696D6D656400FFFF4C6576650E
:1047E0006C2042726967687400FFFF46616E207337
:1047F0007065656400FFFF42656400FFFF4E6F7ADD
:104800007A6C6500FFFF53657474696E677300FF0F
:10481000FF5072696E742061626F7274656400FF8C
:10482000FF53746F70207072696E7400FFFF4368ED
:1048300065636B696E672066696C6500FFFF46699A
:104840006C6520696E636F6D706C6574652E2043B6
:104850006F6E74696E756520616E797761793F005E
:10486000FFFF045265667265736800FFFF4D616962
:104870006E00FFFF506C6561736520756E6C6F6133
:1048800064207468652066696C616D656E7420666D
:10489000697273742C207468656E2072657065612E
:1048A00074207468697320616374696F6E2E00FFF1
:1048B000FF496E73657274207468652066696C6167
:1048C0006D656E742028646F206E6F74206C6F614C
:1048D000642069742920696E746F2074686520658E
:1048E0007874727564657220616E64207468656E98
:1048F00020707265737320746865206B6E6F622E12
:1049000000FFFF566572696669636174696F6E20A6
:104910006661696C65642C2072656D6F76652074C4
:1049200068652066696C616D656E7420616E6420D7
:1049300074727920616761696E2E00FFFF53656EA6
:10494000736F722076657269666965642C20726582
:104950006D6F7665207468652066696C616D656E43
:1049600074206E6F772E00FFFF506C6561736520B9
:10497000636865636B207468652049522073656EB7
:10498000736F7220636F6E6E656374696F6E2C2037
:10499000756E6C6F61642066696C616D656E742004
:1049A00069662070726573656E742E00FFFF576133
:1049B0006974696E6720666F72206E6F7A7A6C65B3
:1049C00020616E642062656420636F6F6C696E673E
:1049D00000FFFF53656C662074657374204F4B00B5
:1049E000FFFF53656C662074657374207374617285
:1049F0007400FFFF5072696E742066616E3A00FFAA
:104A0000FF45787472756465722066616E3A00FFC6
:104A1000FF43616C6962726174696E6720686F6DD3
:104A20006500FFFF416C6C20636F727265637400F8
:104A3000FFFF436865636B696E672073656E736F14
:104A4000727300FFFF436865636B696E6720686F70
:104A500074656E6400FFFF436865636B696E672071
:104A600062656400FFFF436865636B696E67205A87
:104A7000206178697300FFFF436865636B696E6747
:104A80002059206178697300FFFF436865636B6993
:104A90006E672058206178697300FFFF4368656383
:104AA0006B696E6720656E6473746F707300FFFFCF
:104AB000436172642072656D6F76656400FFFF4F1D
:104AC0006E00FFFF4F666600FFFF4261636B00FFF1
:104AD000FF5072696E746572206E6F7A7A6C652011
:104AE0006469616D65746572206469666665727378
:104AF0002066726F6D2074686520472D636F646552
:104B00002E20506C6561736520636865636B20744B
:104B100068652076616C756520696E2073657474B4
:104B2000696E67732E205072696E742063616E63C4
:104B3000656C6C65642E00FFFF5072696E7465725F
:104B4000206E6F7A7A6C65206469616D6574657238
:104B500020646966666572732066726F6D20746882
:104B60006520472D636F64652E20436F6E74696EF8
:104B700075653F00FFFF4D4B3353206669726D77BB
:104B8000617265206465746563746564206F6E206E
:104B90004D4B33207072696E74657200FFFF46578B
:104BA0002063726173682064657465637465642151
:104BB00020596F752063616E20636F6E74696E7526
:104BC00065207072696E74696E672E204465627527
:104BD00067206461746120617661696C61626C65F3
:104BE00020666F7220616E616C797369732E204349
:104BF0006F6E7461637420737570706F727420745B
:104C00006F207375626D69742064657461696C737B
:104C10002E00FFFF426C61636B6F7574206F6363DE
:104C200075727265642E205265636F7665722070AE
:104C300072696E743F00FFFF53656C667465737430
:104C40002077696C6C2062652072756E20746F200D
:104C500063616C696272617465206163637572611E
:104C600074652073656E736F726C65737320726503
:104C7000686F6D696E672E00FFFF5468657265206E
:104C80006973207374696C6C2061206E65656420A3
:104C9000746F206D616B65205A2063616C6962726C
:104CA0006174696F6E2E20506C6561736520666F4C
:104CB0006C6C6F7720746865206D616E75616C2C0B
:104CC0002063686170746572204669727374207322
:104CD000746570732C2073656374696F6E20436113
:104CE0006C6962726174696F6E20666C6F772E00FA
:104CF000FFFF5072696E74657220686173206E6F79
:104D000074206265656E2063616C696272617465AE
:104D100064207965742E20506C6561736520666F20
:104D20006C6C6F7720746865206D616E75616C2C9A
:104D300020636861707465722046697273742073B1
:104D4000746570732C2073656374696F6E204361A2
:104D50006C6962726174696F6E20666C6F772E0089
:104D6000FFFF4F6C642073657474696E677320660F
:104D70006F756E642E2044656661756C74205049B1
:104D8000442C20457374657073206574632E2077FE
:104D9000696C6C206265207365742E00FFFF57619B
:104DA000726E696E673A20626F7468207072696E05
:104DB000746572207479706520616E64206D6F7403
:104DC000686572626F6172642074797065206368CF
:104DD000616E6765642E00FFFF5761726E696E67D2
:104DE0003A207072696E7465722074797065206300
:104DF00068616E6765642E00FFFF5761726E696EB1
:104E0000673A206D6F74686572626F6172642074B6
:104E1000797065206368616E6765642E00FFFF43EB
:104E2000726173682064657465637465642E00FF45
:104E3000FF536F6D652070726F626C656D20656EDB
:104E4000636F756E74657265642C205A2D6C65767F
:104E5000656C696E6720656E666F72636564202E8F
:104E60002E2E00FFFF472D636F646520736C69630E
:104E7000656420666F72206120646966666572658C
:104E80006E74206C6576656C2E20436F6E74696E4F
:104E900075653F00FFFF472D636F646520736C6984
:104EA00063656420666F722061206469666665725E
:104EB000656E74206C6576656C2E20506C65617330
:104EC000652072652D736C69636520746865206D5B
:104ED0006F64656C20616761696E2E205072696E27
:104EE000742063616E63656C6C65642E00FFFF4720
:104EF0002D636F646520736C6963656420666F72EF
:104F00002061206E65776572206669726D776172C7
:104F1000652E20506C6561736520757064617465E1
:104F200020746865206669726D776172652E205005
:104F300072696E742063616E63656C6C65642E00CB
:104F4000FFFF472D636F646520736C6963656420A0
:104F5000666F722061206E65776572206669726D7A
:104F6000776172652E20436F6E74696E75653F00C0
:104F7000FFFF472D636F646520736C696365642070
:104F8000666F72206120646966666572656E742062
:104F90007072696E74657220747970652E20436F2B
:104FA0006E74696E75653F00FFFF472D636F646522
:104FB00020736C6963656420666F72206120646988
:104FC00066666572656E74207072696E74657220B3
:104FD000747970652E20506C656173652072652D43
:104FE000736C69636520746865206D6F64656C20FF
:104FF000616761696E2E205072696E742063616E04
:1050000063656C6C65642E00FFFF507265737320DE
:10501000746865206B6E6F6220746F2070726568B3
:10502000656174206E6F7A7A6C6520616E642063AE
:105030006F6E74696E75652E00FFFF506C6561734D
:105040006520707265737320746865206B6E6F6283
:1050500020746F20756E6C6F61642066696C616D81
:10506000656E7400FFFF52656D6F7665206F6C642E
:105070002066696C616D656E7420616E642070726B
:1050800065737320746865206B6E6F6220746F2087
:105090007374617274206C6F6164696E67206E65F1
:1050A000772066696C616D656E742E00FFFF616E1E
:1050B0006420707265737320746865206B6E6F6214
:1050C00000FFFF496E736572742066696C616D65DF
:1050D0006E7400FFFF436F6C6F72206E6F742063FD
:1050E0006F727265637400FFFF46696C616D656E77
:1050F00074206E6F74206C6F6164656400FFFF4301
:1051000068616E67656420636F72726563746C7941
:105110003F00FFFF4C6F6164696E6720636F6C6FC7
:105120007200FFFF4368616E676520737563636596
:1051300073732100FFFF506C65617365206F7065AC
:105140006E2069646C657220616E642072656D6F9B
:1051500076652066696C616D656E74206D616E7533
:10516000616C6C792E00FFFF5761732066696C617A
:105170006D656E7420756E6C6F616420737563630A
:1051800065737366756C3F00FFFF506C65617365F6
:1051900020757067726164652E00FFFF4E65772091
:1051A0006669726D776172652076657273696F6E7C
:1051B00020617661696C61626C653A00FFFF57613E
:1051C0006974696E6720666F722050494E444120B1
:1051D00070726F626520636F6F6C696E6700FFFFAE
:1051E00043686F6F73652065787472756465723A91
:1051F00000FFFF43686F6F73652066696C616D65C2
:105200006E743A00FFFF4E6F206D6F76652E00FFC3
:10521000FF537461626C6520616D6269656E742014
:1052200074656D70657261747572652032312D32EE
:105230003643206973206E65656465642061207261
:1052400069676964207374616E6420697320726594
:105250007175697265642E00FFFF506C656173653E
:105260002072756E2058595A2063616C69627261B0
:1052700074696F6E2066697273742E00FFFF576148
:10528000697420666F7220757365722E2E2E00FF72
:10529000FF48656174696E672064697361626C655B
:1052A00064206279207361666574792074696D6524
:1052B000722E00FFFF46532076302E33206F72206F
:1052C0006F6C64657200FFFF46532076302E3420E9
:1052D0006F72206E6577657200FFFF5265636F76AF
:1052E0006572696E67207072696E7400FFFF506CA2
:1052F00065617365207761697400FFFF53544F50F7
:105300005045442E00FFFF756E6B6E6F776E2073F5
:105310007461746500FFFF20302E34206F72206EA0
:105320006577657200FFFF20302E33206F72206F8B
:105330006C64657200FFFF426564206C6576656C85
:10534000696E67206661696C65642E2053656E73B3
:105350006F72206469646E27742074726967676570
:10536000722E20446562726973206F6E206E6F7AB0
:105370007A6C653F2057616974696E6720666F7249
:105380002072657365742E00FFFF506C6561736554
:1053900020757064617465206669726D77617265ED
:1053A00020696E20796F7572204D4D55322E205731
:1053B000616974696E6720666F72207265736574C7
:1053C0002E00FFFF4D4D55204F4B2E20526573751B
:1053D0006D696E672E2E2E00FFFF4D4D55204F4BF1
:1053E0002E20526573756D696E6720706F736974D6
:1053F000696F6E2E2E2E00FFFF4D4D55204F4B2E08
:1054000020526573756D696E672074656D70657285
:1054100061747572652E2E2E00FFFF466978207428
:10542000686520697373756520616E6420746865B2
:105430006E20707265737320627574746F6E206F66
:105440006E204D4D5520756E69742E00FFFF507211
:1054500065737320746865206B6E6F6220746F20B3
:10546000726573756D65206E6F7A7A6C65207465F0
:105470006D70657261747572652E00FFFF4D4D553C
:10548000206E656564732075736572206174746540
:105490006E74696F6E2E00FFFF43757474696E67DA
:1054A0002066696C616D656E7400FFFF506C65610C
:1054B00073652072656D6F76652066696C616D65D8
:1054C0006E7420616E64207468656E2070726573FE
:1054D0007320746865206B6E6F622E00FFFF456A53
:1054E000656374696E672066696C616D656E7400D2
:1054F000FFFF4D4D55206C6F6164206661696C65DE
:105500006400FFFF536865657400FFFF5965730011
:10551000FFFF4E6F00FFFF4E6F74207370696E6E59
:10552000696E6700FFFF5370696E6E696E6700FFFA
:10553000FF46616E207465737400FFFF53656C66EF
:1055400074657374206661696C656400FFFF257380
:10555000206C6576656C20657870656374656400A1
:10556000FFFF46616C7365207472696767657269D5
:105570006E6700FFFF46696C616D656E7420736530
:105580006E736F7200FFFF5377617070656400FF88
:10559000FF46726F6E742F6C6566742066616E7361
:1055A00000FFFF4178697300FFFF41786973206C49
:1055B000656E67746800FFFF4C6F6F7365207075D0
:1055C0006C6C657900FFFF4C65667420686F7465CC
:1055D0006E642066616E3F00FFFF46726F6E74203E
:1055E0007072696E742066616E3F00FFFF456E64E5
:1055F00073746F70206E6F742068697400FFFF45CC
:105600006E6473746F7000FFFF4D6F746F7200FFF4
:10561000FF456E6473746F707300FFFF57697269A2
:105620006E67206572726F7200FFFF4265642F48DB
:10563000656174657200FFFF4E6F7420636F6E6E5C
:10564000656374656400FFFF4865617465722F547B
:105650006865726D6973746F7200FFFF506C6561ED
:10566000736520636865636B3A00FFFF53656C6682
:1056700074657374206572726F722100FFFF585950
:105680005A2063616C6962726174696F6E20616C2B
:105690006C2072696768742E20536B657720776978
:1056A0006C6C20626520636F727265637465642040
:1056B0006175746F6D61746963616C6C792E00FF44
:1056C000FF58595A2063616C6962726174696F6E28
:1056D00020616C6C2072696768742E20582F5920E5
:1056E000617865732061726520736C696768746C9A
:1056F0007920736B657765642E20476F6F64206A2D
:105700006F622100FFFF58595A2063616C69627211
:105710006174696F6E206F6B2E20582F592061784D
:105720006573206172652070657270656E6469636F
:10573000756C61722E20436F6E67726174756C6157
:1057400074696F6E732100FFFF58595A2063616CB2
:105750006962726174696F6E20636F6D70726F6DD4
:10576000697365642E2052696768742066726F6E73
:10577000742063616C6962726174696F6E20706F0E
:10578000696E74206E6F7420726561636861626C0B
:10579000652E00FFFF58595A2063616C696272617F
:1057A00074696F6E20636F6D70726F6D697365647D
:1057B0002E2046726F6E742063616C696272617430
:1057C000696F6E20706F696E7473206E6F742072D3
:1057D0006561636861626C652E00FFFF58595A204D
:1057E00063616C6962726174696F6E206661696C75
:1057F00065642E2052696768742066726F6E74202B
:1058000063616C6962726174696F6E20706F696E3A
:1058100074206E6F7420726561636861626C652EBE
:1058200000FFFF58595A2063616C696272617469A4
:105830006F6E206661696C65642E2046726F6E74AF
:105840002063616C6962726174696F6E20706F6948
:105850006E7473206E6F7420726561636861626C30
:10586000652E00FFFF58595A2063616C69627261AE
:1058700074696F6E206661696C65642E20506C657A
:1058800061736520636F6E73756C74207468652036
:105890006D616E75616C2E00FFFF58595A2063616F
:1058A0006C6962726174696F6E206661696C6564AF
:1058B0002E204265642063616C6962726174696F55
:1058C0006E20706F696E7420776173206E6F742024
:1058D000666F756E642E00FFFF506C656173652006
:1058E000706C61636520737465656C2073686565B1
:1058F00074206F6E20686561746265642E00FFFF1E
:1059000044697374616E6365206265747765656E62
:1059100020746970206F6620746865206E6F7A7AD3
:105920006C6520616E642074686520626564207314
:1059300075726661636520686173206E6F742062A2
:1059400065656E20736574207965742E20506C65D2
:1059500061736520666F6C6C6F7720746865206D6D
:10596000616E75616C2C206368617074657220468D
:10597000697273742073746570732C20736563741B
:10598000696F6E204669727374206C61796572204C
:1059900063616C6962726174696F6E2E00FFFF5003
:1059A0006C6163652061207368656574206F662093
:1059B000706170657220756E646572207468652010
:1059C0006E6F7A7A6C6520647572696E6720746890
:1059D000652063616C6962726174696F6E206F66C5
:1059E000206669727374203420706F696E74732E30
:1059F00020496620746865206E6F7A7A6C65206332
:105A00006174636865732074686520706170657285
:105A10002C20706F776572206F6666207468652031
:105A20007072696E74657220696D6D656469617408
:105A3000656C792E00FFFF506C656173652072659F
:105A40006D6F766520737465656C20736865657429
:105A50002066726F6D20686561746265642E00FF58
:105A6000FF497320737465656C20736865657420E5
:105A70006F6E20686561746265643F00FFFF536567
:105A800061726368696E67206265642063616C6936
:105A900062726174696F6E20706F696E7400FFFFCF
:105AA0004D6561737572696E6720726566657265B2
:105AB0006E636520686569676874206F662063613E
:105AC0006C6962726174696F6E20706F696E7400C8
:105AD000FFFF506C6561736520636C65616E2074B7
:105AE0006865206E6F7A7A6C6520666F72206361DC
:105AF0006C6962726174696F6E2E20436C69636BAE
:105B0000207768656E20646F6E652E00FFFF41751B
:105B1000746F20686F6D6500FFFF536F7274696E5C
:105B2000672066696C657300FFFF536F6D652066C3
:105B3000696C65732077696C6C206E6F7420626588
:105B400020736F727465642E204D61782E204E6F25
:105B50002E206F662066696C657320696E20312087
:105B6000666F6C64657220666F7220736F72746901
:105B70006E67206973203130302E0020746F6F20E3
:105B80006C6F6E6720657874727573696F6E2070C4
:105B9000726576656E7465640020636F6C64206561
:105BA0007874727573696F6E2070726576656E7445
:105BB000656400544D4320445249564552204F5687
:105BC000455254454D500025632533642F256425E7
:105BD00063005A25362E32662563005A2020202D78
:105BE0002D2D200025632533642525002D2D2D0026
:105BF0002533640025335325337325250020534472
:105C00000020202000555342002025753E257500B8
:105C1000203F3E257500204625750020463F002088
:105C200046524D2000256325337568202563256382
:105C3000002563253032753A25303275256325639A
:105C40000025632D2D3A2D2D2020002F2F2061635C
:105C500074696F6E3A706175736500257320253421
:105C6000642052504D0A2573202534642052504D33
:105C70000A00686F77746F2E707275736133642ECB
:105C8000636F6D00666F72756D2E70727573613320
:105C9000642E636F6D00707275736133642E636F71
:105CA0006D0025533A0A2531382E32666D200A25BB
:105CB000533A0A2531306C64642025303264682000
:105CC000253032646D0025533A0A2531382E32666C
:105CD0006D200A25533A0A2531306C64682025303E
:105CE00032646D2025303264730025362E32666DA5
:105CF0006D0025530A25530A25533A0A25533A00C5
:105D000025332E32660100252D31342E3134533A9D
:105D10000A25530A252D31342E3134533A25332E9A
:105D20003266010A252D31342E3134533A25332E73
:105D300032660100202030002020310046494E44C8
:105D40004100FFFF50494E44410057697A61726437
:105D500020656E642073746174653A2025640A00BE
:105D6000FFFF53706F6F6C4A6F696E00FFFF4669EB
:105D7000726D7761726500FFFF466C6173684169FF
:105D800072004572723A205052494E542046414E9C
:105D9000204552524F52004572723A204558545293
:105DA0002E2046414E204552524F52002F2F206147
:105DB0006374696F6E3A726573756D6564002F2F39
:105DC00020616374696F6E3A706175736564002F4A
:105DD0002F20616374696F6E3A726573756D65002B
:105DE0002F2F20616374696F6E3A63616E63656C17
:105DF0000041786973206C656E6774682064696619
:105E0000666572656E63653A252E33660A004D65D8
:105E10006173757265642061786973206C656E6763
:105E200074683A252E33660A004C4344207374612B
:105E3000747573206368616E676564005344206302
:105E40006172642072656C656173656400452D63E1
:105E50006F6F6C206D6F646500414C5446414E205D
:105E60006465742E0045787465726E616C205350C1
:105E70004920666C6173680A58464C415348206952
:105E800073206E6F74207265732D0A706F6E646973
:105E90006E672E204C616E67756167650A7377695E
:105EA00074636820756E617661696C61626C652EE1
:105EB000002F2F20616374696F6E3A64756D705F97
:105EC000617661696C61626C650050727573612006
:105ED0006933204D4B3353204F4B2E004372617377
:105EE0006844657465637420454E41424C454421C5
:105EF0000043726173684465746563742044495358
:105F000041424C4544004578747275646572206660
:105F1000616E20747970653A200058464C415348B0
:105F2000206E6F7420726573706F6E64696E672E79
:105F3000002020506C616E6E6572427566666572F7
:105F400042797465733A20002046726565204D657C
:105F50006D6F72793A2000207C20417574686F72F1
:105F60003A2000204C61737420557064617465643C
:105F70003A200020536F6674776172652052657312
:105F8000657400205761746368646F67205265739D
:105F90006574002042726F776E206F7574205265B1
:105FA000736574002045787465726E616C2052656B
:105FB00073657400506F7765725570006572726F0B
:105FC000722077726974696E6720746F2066696CDD
:105FD0006500446F6E6520736176696E672066693F
:105FE0006C652E006F6B003F3F004E656465726C00
:105FF000616E647300506F6C736B69004974616CFF
:1060000069616E6F004672616E636169730045730A
:1060100070616E6F6C0044657574736368004365EE
:106020007374696E6100456E676C69736800256CF6
:1060300075206279746573207772697474656E2057
:10604000746F2025532061742061646472657373DA
:106050002030782530346C780A00442564202D20C7
:10606000526561642F57726974652025530A0020B8
:10607000436F756E7420583A200045303A256420ED
:1060800052504D2050524E313A25642052504D20EE
:106090004530403A25752050524E31403A25640A29
:1060A0000064756D7020636C65617265640A006ED2
:1060B0006F2064756D7020617661696C61626C65DA
:1060C0000A00443231202D207265616420637261C0
:1060D00073682064756D700A006E6F2064756D7052
:1060E00020617661696C61626C650A0064756D702F
:1060F00020636F6D706C6574656420696E20256C1B
:10610000756D730A0058464C41534800454550523E
:106110004F4D005352414D00442D31202D20456EEE
:10612000646C657373206C6F6F700A005344207049
:1061300072696E74696E67206279746520004163CC
:10614000746976652045787472756465723A2000CA
:10615000496E76616C6964206578747275646572E5
:10616000005A204F666673657400556E6B6E6F77CC
:106170006E20636F6D6D616E643A2022004D323087
:106180003020496E76616C6964206578747275643C
:10619000657220007A5F6D61783A20007A5F6D69E0
:1061A0006E3A2000795F6D61783A2000795F6D6901
:1061B0006E3A2000785F6D61783A2000545249476A
:1061C0004745524544006F70656E00785F6D696E9B
:1061D0003A20005265706F7274696E6720656E6454
:1061E00073746F70207374617475730053494C45F8
:1061F0004E54004E4F524D414C002553204D4F44BC
:10620000453A2050657263656E7420646F6E653A1E
:1062100020256868643B207072696E742074696D13
:10622000652072656D61696E696E6720696E206DAB
:10623000696E733A2025643B204368616E67652070
:10624000696E206D696E733A2025640A00456E649C
:106250002066696C65206C69737400426567696EBD
:106260002066696C65206C69737400556E6B6E6F87
:10627000776E20256320636F64653A2025730A00DA
:106280000A50494E44412074656D706572617475A1
:1062900072653A20252E3166205A2073686966742B
:1062A00020286D6D293A20252E3366000A53746527
:1062B000703A2025642F360A000A537465703A201C
:1062C00025642F362028736B6970706564290A5025
:1062D000494E44412074656D7065726174757265D4
:1062E0003A202564205A20736869667420286D6DF1
:1062F000293A300A000A5A45524F3A20252E336671
:106300000A0073746172742074656D7065726174D3
:106310007572653A20252E31660A002564202025F5
:106320002E326600255320583A20252E35662059F6
:106330003A20252E3566205A3A20252E35660A0049
:10634000536C6565702E2E2E0045303A2564205220
:10635000504D0A50524E303A25642052504D0A009A
:10636000257500526573656E640025533A20256CCF
:10637000640A25530A00496E616374697669747909
:106380002053687574646F776E004B494C4C4544DC
:106390002E20005072696E7465722068616C74659D
:1063A000642E206B696C6C28292063616C6C6564B9
:1063B00021004B494C4C3A2025640A004D323231C1
:1063C00020496E76616C69642065787472756465C5
:1063D0007220004D32313820496E76616C6964203C
:1063E000657874727564657220004D3130392049CA
:1063F0006E76616C6964206578747275646572206C
:10640000004D31303520496E76616C6964206578C5
:1064100074727564657220004D31303420496E7697
:10642000616C6964206578747275646572200050CF
:106430004F5745522050414E49432044455445430F
:106440005445440055564C4F202D20656E64202540
:10645000640A0055564C4F5F54494E59202D206513
:106460006E642025640A00776F726C6420636F6F1E
:106470007264696E617465733A2028252E33662C28
:1064800020252E33662C20252E3366290A004375DD
:106490007272656E7420706F73205A5F4158495351
:1064A0003A252E33660A43757272656E7420706FDA
:1064B0007320455F415849533A252E33660A0041FF
:1064C000667465722077616974696E6720666F72A1
:1064D0002074656D703A0A43757272656E7420702F
:1064E0006F7320585F415849533A252E33660A434B
:1064F000757272656E7420706F7320595F415849D0
:10650000533A252E33660A00656E717565696E67AC
:10651000202200446F6E65207072696E74696E6728
:106520002066696C65004D3131322063616C6C65A9
:10653000642E20456D657267656E63792053746FB4
:10654000702E005072696E7465722073746F707073
:1065500065642064756520746F206572726F727354
:106560002E2046697820746865206572726F7220EB
:10657000616E6420757365204D39393920746F2040
:10658000726573746172742E202854656D70657223
:1065900061747572652069732072657365742E204D
:1065A0005365742069742061667465722072657326
:1065B00074617274696E6729004E6F204C696E6554
:1065C000204E756D62657220776974682063686516
:1065D000636B73756D2C204C617374204C696E6510
:1065E0003A20004E6F20436865636B73756D2077AA
:1065F000697468206C696E65206E756D6265722CB9
:10660000204C617374204C696E653A2000636865A4
:10661000636B73756D206D69736D617463682C2095
:106620004C617374204C696E653A20004C696E654C
:10663000204E756D626572206973206E6F74204CF8
:10664000617374204C696E65204E756D6265722BA6
:10665000312C204C617374204C696E653A200031F6
:106660002F390025632533642F25642563004D658C
:1066700061737572656420736B6577733A20256664
:106680002025660A0046697474696E672066616930
:106690006C6564203D3E2063616C6962726174695F
:1066A0006F6E206661696C65642E0A0043616C69D7
:1066B00062726174696F6E20737563636573732EA4
:1066C0000A00416C6C20342063616C6962726174F1
:1066D000696F6E20706F696E747320666F756E647B
:1066E0002E0A00312F3400312F3400312F3900535E
:1066F000442063617264206F6B006F70656E526F2F
:106700006F74206661696C656400766F6C756D6589
:106710002E696E6974206661696C6564005344205B
:10672000696E6974206661696C006F70656E2066C1
:1067300061696C65642C2046696C653A2000436190
:106740006E6E6F7420656E74657220737562646915
:10675000723A20006E616E00696E66004E414E49CD
:106760004E495459494E46CDCCCC3D0AD7233C170F
:10677000B7D13877CC2B329595E6241FB14F0A005C
:106780000020410000C84200401C4620BCBE4CCA4C
:106790001B0E5AAEC59D7400407A10F35A00A072C9
:1067A0004E18090010A5D4E80000E876481700004C
:1067B000E40B54020000CA9A3B000000E1F505001A
:1067C0000080969800000040420F000000A0860163
:1067D000000000102700000000E803000000006433
:1067E00000000000000A000000000001000000009E
:1067F000002C76D888DC674F0823DFC1DFAE59E173
:10680000B1B796E5E3E453C63AE651997696E8E6E1
:10681000C28426EB898C9B62ED407C6FFCEFBC9CB4
:106820009F40F2BAA56FA5F490055A2AF75C936BC6
:106830006CF9676DC11BFCE0E40D47FEF520E6B581
:1068400000D0ED902E0300943577050080841E085B
:106850000000204E0A000000C80C333333330F9879
:106860006E12831141EF8D2114893BE65516CFFE40
:10687000E6DB18D1844B381BF77C1D901DA4BBE4CC
:1068800024203284725E228100C9F124ECA1E53D0E
:10689000276364696E6F70737578585B00473120A9
:1068A00058352E302045342E302046313030302EB1
:1068B00030004731205A302E3230204631303030CF
:1068C0002E30004731205835352E302045323520C6
:1068D00046313430302E3000473120592D322E30A1
:1068E0002046313030302E3000473120583234309D
:1068F0002E30204532352E30202046323230302E98
:1069000030004739322045302E30004731205A3090
:106910002E332046313030302E300047312058356C
:10692000352E302045382E302046323030302E3053
:106930000047312058352E30204533322E30204646
:10694000313830302E30004731205835352E302048
:106950004533322E302046313037332E3000473128
:10696000204634303030004D323034205331303016
:1069700030004731205A352046373230302E303003
:106980003000473120452D312E3530303030204613
:10699000323130302E3030303030004D3833004717
:1069A000393000473231004739322045302E30002F
:1069B000473120583530205935352045332E363271
:1069C00037373300473120583230302059353520A1
:1069D00045302E3439333836004731205832303084
:1069E000205937352045332E36323737330047317B
:1069F00020583530205937352045302E343933383A
:106A00003600473120583530205939352045332E4E
:106A10003632373733004731205832303020593939
:106A2000352045302E34393338360047312058323E
:106A3000303020593131352045332E363237373317
:106A40000047312058353020593131352045302E1E
:106A500034393338360047312058353020593133F6
:106A6000352045332E363237373300473120583200
:106A7000303020593133352045302E3636313734D9
:106A800000473120583230302059313535204532D9
:106A90002E363237373300473120583130302059C5
:106AA00031353520453200473120583735205931AE
:106AB00035352045322E35004731204631303830CB
:106AC000004731205A302E313530204637323030B1
:106AD0002E3030300047312058353020593135358F
:106AE00000773235783230636C5F63666D0A007709
:106AF0003235783230636C5F656E7465720A00738C
:106B0000746172740A0024F4D43050C38E20C2A27F
:106B10004017828B7011127A910D816CD90AA8618D
:106B2000E108C7586607615143061E4B5D05C14524
:106B3000A7041A411104093D980371393103403605
:106B4000DB0265339102D4305402802E1D02632C87
:106B5000EE01752AC501B028A001102781018F25FB
:106B600064012B244B01E0223401AC211F018D2054
:106B70000D01801FFC00841EED00971DDF00B81C76
:106B8000D200E61BC600201BBC00641AB200B2197A
:106B9000A8000A19A0006A189900D117910040179F
:106BA0008B00B516840031167E00B31579003A15B6
:106BB0007300C7146F0058146A00EE136600881340
:106BC000630025135E00C7125B006C12570015129C
:106BD0005400C111510070114F0021114B00D6100B
:106BE00049008D1047004610440002104200C00FBB
:106BF0004000800F3E00420F3C00060F3B00CB0ED2
:106C00003800930E37005C0E3500270E3400F30D6C
:106C10003200C10D3100900D3000600D2E00320D9C
:106C20002D00050D2C00D90C2B00AE0C2900850C75
:106C300029005C0C2700350C27000E0C2600E80B01
:106C40002400C40B2400A00B23007D0B23005A0B4F
:106C50002100390B2100180B2000F80A1F00D90A67
:106C60001E00BB0A1E009D0A1D00800A1D00630A4B
:106C70001C00470A1B002C0A1B00110A1A00F70906
:106C80001A00DD091900C4091900AB09190092099D
:106C900017007B091800630917004C091600360914
:106CA0001600200916000A091500F5081500E0086D
:106CB0001400CC081400B8081400A40814009008AC
:106CC00013007D0812006B081300580812004608D4
:106CD00012003408110023081100120811000108E5
:106CE0001100F0071000E0071000D0071000C007E7
:106CF0001000B0070F00A107100091070E008307D6
:106D00000F0074070F0065070E0057070E004907B4
:106D10000E003B070D002E070E0020070D00130785
:106D20000D0006070D00F9060C00ED060D00E0064B
:106D30000C00D4060C00C8060C00BC060C00B00603
:106D40000C00A4060B0099060C008D060B008206B1
:106D50000B0077060B006C060B0061060A00570655
:106D60000B004C060A0042060A0038060A002E06EE
:106D70000A0024060A001A060A001006090007067F
:106D80000A00FD050900F4050900EB050900E2050C
:106D90000900D9050900D0050900C7050900BE058D
:106DA0000900B5050800AD050800A50509009C050A
:106DB0000800940508008C050800840508007C057F
:106DC0000800740508006C050700650508005D05EE
:106DD0000700560508004E05070047050700400557
:106DE000080038050700310507002A0507002305BC
:106DF00007001C050600160507000F05070008051B
:106E0000060002050700FB040600F5040700EE0477
:106E10000600E8040600E2040700DB040600D504CF
:106E20000600CF040600C9040600C3040600BD0422
:106E30000600B7040600B1040500AC040600A60471
:106E40000600A00405009B040600950405009004BC
:106E500006008A04050085040500800406007A0403
:106E6000050075040500700405006B040500660448
:106E70000500610405005C04050057040500520488
:106E800005004D04050048040500430405003E04C8
:106E900004003A04050035040500300404002C0405
:106EA000050027040400230405001E0404001A043E
:106EB000040016040500110404000D040400090474
:106EC00005000404040000040400FC030400F803AB
:106ED0000400F4030400F0030400EC030400E803DE
:106EE0000400E4030400E0030400DC030400D8030E
:106EF0000400D4030400D0030400CC030400C8033E
:106F00000300C503030024F404D9201BC40C5C0E49
:106F10009804C4095F0265077101F405F900FB04D8
:106F2000B30048048700C1036900580355000303F8
:106F30004500BE023A008402310053022A002902B1
:106F4000250004022000E4011C00C8011900AF0163
:106F500017009801140084011300710110006101F1
:106F6000100051010E0043010D0036010B002B01F2
:106F70000B0020010B00150109000C0109000301A1
:106F80000800FB000800F3000800EB000700E40025
:106F90000600DE000600D8000600D2000600CC0085
:106FA0000500C7000500C2000500BD000400B900CF
:106FB0000400B5000400B1000400AD000400A90005
:106FC0000400A5000300A20003009F0004009B0032
:106FD0000300980003009500020093000300900056
:106FE00003008D0002008B00030088000200860071
:106FF000020084000300810002007F0002007D0087
:1070000002007B0002007900020077000100760098
:1070100002007400020072000100710002006F00A3
:1070200002006D0001006C0002006A0001006900AE
:1070300002006700010066000100650001006400B5
:1070400002006200010061000100600001005F00B9
:1070500002005D0001005C0001005B0001005A00BD
:1070600001005900010058000100570001005600BE
:1070700001005500010054000100530000005300BE
:1070800001005200010051000100500001004F00BA
:1070900001004E0000004E0001004D0001004C00B8
:1070A00001004B0000004B0001004A0001004900B4
:1070B00001004800000048000100470001004600B0
:1070C00000004600010045000000450001004400AA
:1070D00001004300000043000100420000004200A4
:1070E00001004100000041000100400001003F009C
:1070F00000003F0001003E0000003E0001003D0096
:1071000000003D0001003C0000003C0000003C008D
:1071100001003B0000003B0001003A0000003A0083
:10712000010039000000390001003800000038007B
:107130000000380001003700000037000100360071
:107140000000360000003600010035000000350068
:10715000000035000100340000003400000034005D
:107160000100330000003300000033000100320052
:107170000000320000003200010031000000310048
:10718000000031000100300000003000000030003D
:1071900001002F0000002F0000002F0000002F0032
:1071A00001002E0000002E0000002E0001002D0026
:1071B00000002D0000002D0000002D0001002C001B
:1071C00000002C0000002C0000002C0001002B000F
:1071D00000002B0000002B0000002B0001002A0003
:1071E00000002A0000002A0000002A0001002900F7
:1071F00000002900000029000000290000002900EB
:1072000001002800000028000000280000002800DD
:1072100000002800010027000000270000002700D0
:1072200000002700000027000100260000002600C3
:1072300000002600000026000000260001002500B6
:1072400000002500000025000000250000002500AA
:10725000000025000100240000002400000024009C
:10726000000024000000240001002300000023008F
:107270000000230000002300000023000000230082
:107280000000230001002200000022000000220074
:107290000000220000002200000022000100210066
:1072A000000021000000210000002100000021005A
:1072B000000021000000210001002000000020004B
:1072C000000020000000200000002000000020003E
:1072D000000020000000200001001F0000001F002F
:1072E00000001F0000001F0000001F0000001F0022
:1072F00000001F0001001E0000001E0000001E0014
:1073000000001E000000504944204175746F7475E0
:107310006E652066696E69736865642120507574B6
:1073200020746865206C617374204B702C204B694D
:1073300020616E64204B6420636F6E7374616E74A1
:10734000732066726F6D2061626F766520696E745E
:107350006F20436F6E66696775726174696F6E2E18
:107360006800504944204175746F74756E652066DD
:1073700061696C6564212074696D656F75740020A6
:10738000403A00543A00423A005049442041757452
:107390006F74756E65206661696C65642120546543
:1073A0006D706572617475726520746F6F206869A5
:1073B000676800204B643A2000204B693A20002087
:1073C0004B703A200020436C61737369632050490D
:1073D0004420002054753A2000204B753A200020AC
:1073E0006D61783A2000206D696E3A200020643A81
:1073F000200020626961733A2000457874727564D8
:1074000065722066616E2073706565642069732003
:107410006C6F776572207468616E20657870656343
:10742000746564005072696E742066616E207370BA
:10743000656564206973206C6F776572207468617C
:107440006E206578706563746564004D494E5445DF
:107450004D5020414D42004D415854454D50004D36
:10746000415854454D5020424544004D41585445E3
:107470004D5020414D420070012C0190012701B078
:10748000012201C0011D01F0011801100213013099
:10749000020E016002090190020401C002FF000017
:1074A00003FA004003F5008003F000D003EB002056
:1074B00004E6007004E100E004DC004005D700C0F1
:1074C00005D2004006CD00D006C8008007C30030BA
:1074D00008BE00F008B900C009B400B00AAF00B09F
:1074E0000BAA00D00CA500000EA000500F9B00C0FE
:1074F0001096005012910000148C00C0158700B047
:10750000178200B0197D00D01B7800001E73004068
:10751000206E0090226900F024640040275F0090F4
:10752000295A00E02B5500102E500020304B00103F
:10753000324600E033410090353C00103737007090
:10754000383200A0392D00B03A2800A03B2300605B
:107550003C1E00103D1900903D1400103E0F0070BD
:107560003E0A00C03E0500003F000090137D00B0C1
:10757000157800F0177300601A6E00F01C6900A007
:107580001F640050225F0020255A00E0275500901C
:107590002A5000202D4B00A02F4600F03141001052
:1075A000343C00F0353700A037320020392D006020
:1075B0003A2800703B2300603C1E00203D1900C0AB
:1075C0003D1400403E0F00A03E0A00F03E05004082
:1075D0003F0000703FFBFF903FF6FFB03FF1FFC060
:1075E0003FECFFD03FE7FFE03FE2FFF03FDDFFF081
:1075F0003FD8FF20484F54454E4420544845524DF3
:10760000414C2052554E4157415900204845415464
:1076100042454420544845524D414C2052554E411C
:1076200057415900544845524D414C2052554E4106
:107630005741590042454420544845524D414C2041
:1076400052554E415741590020544845524D414CE6
:107650002052554E415741592028505245484541E6
:107660005420484F54454E44290020544845524D1B
:10767000414C2052554E41574159202850524548BF
:107680004541542048454154424544290050524503
:1076900048454154204552524F52004245442050E3
:1076A000524548454154204552524F52004572724E
:1076B0003A2000207472696767657265642100482A
:1076C000656174657273207377697463686564209B
:1076D0006F66662E20003A2000506C65617365204D
:1076E00072657374617274004D494E54454D50007B
:1076F0004D494E54454D502042454400452D6D6F37
:10770000746F722063757272656E74207363616C3E
:10771000696E6720656E61626C656400746D6332CA
:107720003133305F686F6D655F656E7465722861B7
:107730007865735F6D61736B3D30782530327829E1
:107740000A00746D63323133305F686F6D655F6559
:1077500078697420746D63323133305F73675F68AA
:107760006F6D696E675F617865735F6D61736B3DA7
:107770003078253032780A00726573756C74207623
:10778000616C75653A2025640A0020693D253264E4
:1077900020636E743D2532642076616C3D25326431
:1077A0000A00636C7573746572733A0020693D2535
:1077B000326420737465703D2532640A00736F7201
:1077C0007465642073616D706C65733A00252D37A4
:1077D00073003A200025642F3600252D32305300E7
:1077E000203A2000252D32307300473932204530B1
:1077F0002E3000473238004D313039004D313930AC
:10780000004D31303700542564004731205A302E66
:10781000342046313030302E3000473120592D335E
:107820002E302046313030302E30004D3833004776
:107830003120583130302E30204531322E3520461F
:10784000313030302E30004731205836302E302045
:1078500045392E302046313030302E3000476931E6
:10786000691B690B690269E968D868C368B2689DD9
:1078700068A769A3699F699B698269726967695E84
:1078800069473120583530205933352045252D2E74
:10789000336600D56AC16AB86AA76A976A816A6B5B
:1078A0006A566A416A2B6A166A026AEE69D969C425
:1078B00069B069496E76616C6964205049442063FF
:1078C000616C2E20726573756C74732E204E6F740C
:1078D0002073746F72656420746F20454550524F59
:1078E0004D2E004D353030004731205A313520467D
:1078F000313530300047393100473120583530209C
:107900005931393020453020463730303000473942
:1079100030004D3834004D3730322043004731209D
:10792000583130205931383020463430303000471B
:1079300031205A31302046313330302E3030300053
:107940004D313430205330004D313034205330002D
:10795000473120452D302E303735303020463231FA
:1079600030302E3030303030004D3130370025533C
:107970000A20252D31362E313653252D33640A2029
:10798000252D31362E313653252D33640025530AEB
:1079900020252D31362E313653252D33640A2025EE
:1079A0002D31362E313653252D33640A20252D31C5
:1079B000362E313653252D33640025530A20252DCC
:1079C00031362E313653252D33640A20252D31369C
:1079D0002E313653252D33640A20252D372E37536B
:1079E0005820252D336420205920252D3364002074
:1079F000257325336401200A000A204952203A20C9
:107A000020202020202025332E316656002050577C
:107A1000523A20202020202025342E3166560A207C
:107A20004245443A20202020202025342E3166561D
:107A30000025530A20582025640A20592025640077
:107A400025752E25752E25752E257500257300208C
:107A5000005072696E7465722049502041646472EE
:107A60003A002573002000466C61736841697220FA
:107A7000495020416464723A004D4D553220202017
:107A8000202020204E2F410025642E25642E2564C1
:107A90002D2564002046573A0046696C2E207365F8
:107AA0006E736F7220762E3A004665622032332064
:107AB0003230323200453344763666756C6C0045A0
:107AC000494E53795F31306100315F37356D6D5FFD
:107AD0004D4B33002D2D2D2D2D2D2D2D2D2D2D2DBF
:107AE00000207265706F20556E6B6E6F776E002090
:107AF000332E31302E312D34363937004669726DD0
:107B0000776172653A004D373032004D37303100C1
:107B10004D373032004D37303100464C4558202D1E
:107B200020203234302F35300050502020202D209E
:107B3000203235342F3130300048495053202D2029
:107B4000203232302F3130300041425320202D205E
:107B5000203235352F3130300050564220202D2034
:107B6000203231352F37350050432020202D202062
:107B70003237352F3131300041534120202D202024
:107B80003236302F3130350050455420202D202002
:107B90003233302F383500504C4120202D202032F8
:107BA00031352F3630006E6F7A7A6C65202D2020AB
:107BB0003235302F30006661726D2020202D20205C
:107BC0003235302F383000252D31322E31325325C9
:107BD0002B382E31660045787472756465723A00F0
:107BE0006D6D0059005800583A00593A005A3A0051
:107BF0002563252D31332E313353252B352E336616
:107C00000054656D70657261747572652063616C96
:107C10006962726174696F6E206661696C65642E59
:107C200020436F6E74696E75652077697468207083
:107C300072657373696E6720746865206B6E6F621E
:107C40002E0054656D706572617475726520636194
:107C50006C6962726174696F6E20646F6E652E204C
:107C6000436F6E74696E75652077697468207072F1
:107C7000657373696E6720746865206B6E6F622E22
:107C8000007B5B4552523A00332E31302E31005D7D
:107C90005B4657523A005D5B54494D3A005D5B4686
:107CA0004E4D3A005D5B46454D3A005D5B504344A6
:107CB0003A005B5446553A007B5B50524E3A393994
:107CC0005D007B5B50524E3A355D007B5B50524EFF
:107CD0003A305D007B5B50524E3A395D007B5B5021
:107CE000524E3A385D007B5B5245533A305D5B46FD
:107CF000494C3A007B5B5245533A315D5B46494CF7
:107D00003A005B50524E3A005B50464E3A305D00AE
:107D10005B4449413A005D5B4154423A005D5B413E
:107D200054303A005D5B5354423A005B5354303A4E
:107D300000473830004D3435004D3435205A004767
:107D400037360057697A6172642073746174653ADA
:107D50002025640A004578706572696D656E7461EE
:107D60006C004673656E736F72204465746563744E
:107D7000696F6E0044697361626C65206661726D43
:107D8000206D6F6465004D3834004D343400473247
:107D900038205700200A200A20004739390044695A
:107DA0007361626C65206661726D206D6F64653F02
:107DB000004D363030004D203834004D3834004D01
:107DC0003234004D323320257300052E2E002575E8
:107DD00000593A202575202D3E202E2E2E00257587
:107DE00000583A202575202D3E202E2E2E004D6560
:107DF0006173757265642066696C616D656E74206F
:107E000073656E736F72206C6F77206C6576656C2E
:107E10003A2025342E3266560A004D65617375721C
:107E200065642066696C616D656E742073656E7340
:107E30006F722068696768206C6576656C3A2025EA
:107E4000342E3266560A00457874722066616E20C0
:107E500073706565643A2025640A005072696E7417
:107E60002066616E2073706565643A2025640A009F
:107E70005465737420323A00457874722066616EDE
:107E80002073706565643A2025640A005072696E3B
:107E9000742066616E2073706565643A2025640AFB
:107EA000005465737420313A004D38340025632046
:107EB00041584953205347313D25640A00486F74A7
:107EC000656E6400426564005A00590058002D2D0B
:107ED0002D2D2D2D2D2D2D2D2D2D2D2D2D2D2D2DD2
:107EE0002D2D004F4B006265746100616C706861FC
:107EF000006465760003000A0001005912505255D3
:107F00005341334446570000002100240027002A33
:107F1000002D003000330001010000040107010AB8
:107F20000100002200250028002B002E0031003423
:107F30000002010000050108010B010000200023E0
:107F400000260029002C002F003200000100000351
:107F500001060109010505050507050808080802CD
:107F60000202020A0A0808040404040101010101D2
:107F70000101010303030303030303040707070CC1
:107F80000C0C0C0C0C0C0C02020202060606060677
:107F90000606060B0B0B0B0B0B0B0B07070A0A0A4B
:107FA0000A0A0A0505050404040808010210202035
:107FB000080810204010204080020102010804023D
:107FC00001010204081020408080402010080402B3
:107FD000018004020180402010080402010804020C
:107FE0000101020408102040800102040810204012
:107FF00080100804088010204004408010204004B5
:108000008000000A0B02090C0D0E08070304010092
:108010000000000000000000000000000000000060
:10802000000000000000000000000000001211101D
:108030000000000000000000000000000000000040
:108040000000000000000000000000000000000030
:10805000000000000000004C616E677561676520DC
:108060007570646174652E00435A5058003B53008C
:108070006164635F696E6974000A204F72696769A1
:108080006E616C2050727573612069330A20202064
:108090005072757361205265736561726368002068
:1080A0000A200A200A2000416C6C2044617461009F
:1080B00053657276696365207072657000536869F4
:1080C0007070696E672070726570005374617469B6
:1080D0007374696373004C616E6775616765004511
:1080E000524153494E4720616C6C206461746100B9
:1080F000466163746F727920524553455400444978
:108100005341424C454400454E41424C45440020B9
:108110002873656E736F7220626F6172642072657E
:10812000766973696F6E3A2553290A004653656E66
:10813000736F7220255300494E5434004D4B335316
:108140004D4D553253004E4F4D4B3353002E014E83
:108150004F4354554100414C5446414E00466562E0
:10816000203233203230323200436F6D70696C65DB
:10817000643A2000286E6F6E652C20646566617518
:108180006C7420636F6E66696729004665622032F1
:108190003320323032322031353A31333A31350002
:1081A00020332E31302E312D34363937007374613F
:1081B000727400534E207570646174652066616945
:1081C0006C656400534E207570646174656400438F
:1081D0005A50580043524153485F44455445435414
:1081E000454458590043524153485F444554454320
:1081F000544544590043524153485F444554454314
:1082000054454458004D323900626F6F745F61709D
:10821000705F6D61676963203D30782530386C7818
:108220000A00626F6F745F6170705F666C61677384
:10823000203D3078253032780A00626F6F745F72AB
:108240006573657276656420203D3078253032781C
:108250000A00626F6F745F636F70795F73697A652C
:10826000203D3078253034780A00626F6F745F6487
:1082700073745F6164647220203D30782530386CFF
:10828000780A00626F6F745F7372635F6164647217
:1082900020203D30782530386C780A005553415203
:1082A00054322072782046756C6C21212100536570
:1082B0007474696E67732053746F726564005374CD
:1082C0006F7265642073657474696E67732072657C
:1082D000747269657665640048617264636F646591
:1082E000642044656661756C742053657474696EAE
:1082F0006773204C6F6164656400563200000000B3
:10830000C8420000C8420000C84300008C4300007F
:10831000484300004843000040410000F042E803A9
:108320000000E8030000C8000000881300000040BF
:108330009C4400409C440000000000000000204ECF
:1083400000000000204100002041CDCCCC3E0000C8
:108350009040000000000000000000000000CDCCB4
:10836000CC3E3D0A8141FF08433EB099AB438F426A
:10837000FC42E65A343F4C62B04500000000004029
:108380004000003442000000000000000000000037
:1083900041000000E03F0000C8420000C842000069
:1083A00040410000F042C0030000C0030000C800CC
:1083B0000000881300001010102000409C44454528
:1083C00050524F4D204572726F7200627573793A48
:1083D0002070617573656420666F7220696E7075B8
:1083E0007400627573793A207061757365642066F4
:1083F0006F72207573657200627573793A207072BE
:108400006F63657373696E670000007F430080547B
:10841000430000524300000000000080C09A9919F8
:108420003E00000000000080C09A99193E0000A0A4
:10843000400000A0400000004025336420737465B4
:10844000703D253264206D73636E743D2534640A7B
:108450000000007F43008058439AD95143FFFFFF3B
:1084600020413A0020503A002042403A0020403A51
:1084700000202F00205400202F0020423A00202FFF
:1084800000543A00206D6963726F6E730045786323
:1084900065737369766520626564206C6576656CCA
:1084A000696E6720636F7272656374696F6E3A20DC
:1084B00000426564206C6576656C696E6720666154
:1084C000696C65642E2053656E736F7220747269D7
:1084D00067676572656420746F6F20686967682ECE
:1084E00000426564206C6576656C696E6720666124
:1084F000696C65642E2053656E736F7220646973B6
:10850000636F6E6E6563746564206F722063616271
:108510006C652062726F6B656E2E0020453A0020FC
:108520005A3A0020593A0020453A00205A3A002091
:10853000593A00583A0067636F64655F4D373031D0
:1085400020626567696E0A00416476616E6365202A
:108550004B3D004B206F7574206F6620616C6C6F13
:108560007765642072616E67652100200A200A2009
:10857000004D3232302053256900255346696C6125
:108580006D656E742073657474696E67733A204408
:10859000697361626C65640A00255346696C616D9C
:1085A000656E742073657474696E67733A0A255337
:1085B0002020204D3230302044252E32660A0025FE
:1085C00053526574726163743A20533D4C656E6713
:1085D000746820286D6D2920463A537065656420C3
:1085E000286D6D2F6D29205A3A205A4C69667420E7
:1085F000286D6D290A25532020204D323037205315
:10860000252E32662046252E3266205A252E3266C9
:108610000A25535265636F7665723A20533D45785B
:10862000747261206C656E67746820286D6D2920F6
:10863000463A537065656420286D6D2F6D290A25B3
:10864000532020204D3230382053252E32662046CC
:10865000252E32660A25534175746F2D526574724A
:108660006163743A20533D3020746F2064697361F4
:10867000626C652C203120746F20696E7465727095
:1086800072657420657874727564652D6F6E6C798F
:10869000206D6F76657320617320726574726163FB
:1086A0007473206F72207265636F7665726965738B
:1086B0000A25532020204D323039205325640A00EA
:1086C0002553504944206865617462656420736570
:1086D0007474696E67733A0A25532020204D333035
:1086E000342050252E32662049252E32662044251E
:1086F0002E32660A0025535049442073657474690C
:108700006E67733A0A25532020204D3330312050B4
:10871000252E32662049252E32662044252E3266CB
:108720000A00255353746570732070657220756E4E
:1087300069743A0A255320204D39322058252E32AB
:10874000662059252E3266205A252E326620452570
:108750002E32660A25535553746570207265736F07
:108760006C7574696F6E3A200A2553204D3335308D
:108770002058256420592564205A25642045256405
:108780000A25534D6178696D756D20666565647263
:1087900061746573202D206E6F726D616C20286D81
:1087A0006D2F73293A0A255320204D32303320583B
:1087B000252E32662059252E3266205A252E326605
:1087C0002045252E32660A25534D6178696D756DF9
:1087D00020666565647261746573202D207374650D
:1087E000616C746820286D6D2F73293A0A25532017
:1087F000204D3230332058252E32662059252E3216
:1088000066205A252E32662045252E32660A2553CB
:108810004D6178696D756D20616363656C6572612A
:1088200074696F6E202D206E6F726D616C20286DE3
:108830006D2F7332293A0A255320204D32303120D2
:1088400058256C752059256C75205A256C75204566
:10885000256C750A25534D6178696D756D206163CE
:1088600063656C65726174696F6E202D2073746529
:10887000616C746820286D6D2F7332293A0A255374
:1088800020204D3230312058256C752059256C75CB
:10889000205A256C752045256C750A255341636364
:1088A000656C65726174696F6E3A20503D707269D3
:1088B0006E742C20523D726574726163742C205466
:1088C0003D74726176656C0A255320204D32303438
:1088D0002050252E32662052252E32662054252E19
:1088E00032660A2553416476616E63656420766161
:1088F000726961626C65733A20533D4D696E206602
:108900006565647261746520286D6D2F73292C2054
:10891000543D4D696E2074726176656C20666565A4
:10892000647261746520286D6D2F73292C20423D7F
:108930006D696E696D756D207365676D656E742008
:1089400074696D6520286D73292C20583D6D617800
:10895000696D756D205859206A65726B20286D6DA0
:108960002F73292C20205A3D6D6178696D756D201B
:108970005A206A65726B20286D6D2F73292C202078
:10898000453D6D6178696D756D2045206A65726B36
:1089900020286D6D2F73290A255320204D32303544
:1089A0002053252E32662054252E32662042252E55
:1089B00032662058252E32662059252E3266205ADE
:1089C000252E32662045252E32660A2553486F6DC6
:1089D00065206F666673657420286D6D293A0A25D7
:1089E0005320204D3230362058252E32662059250E
:1089F0002E3266205A252E32660A0046256420252E
:108A0000640A004D4D55203C3D2027462564202515
:108A100064270A004361703A25533A25630A0050DF
:108A2000525553415F4D4D553200455854454E44C3
:108A300045445F4D3230004155544F5245504F52DE
:108A4000545F504F534954494F4E004155544F5273
:108A500045504F52545F46414E53004155544F527A
:108A600045504F52545F54454D5000005A30005A03
:108A70003100593000593100583000583100456EEE
:108A8000642073746F707320646961670044656C5F
